{
  "_format": "hh-sol-artifact-1",
  "contractName": "GomGomNFTSimple",
  "sourceName": "contracts/tokens/GomGomNFTSimple.sol",
  "abi": [
    {
      "inputs": [
        {
          "internalType": "address",
          "name": "admin",
          "type": "address"
        }
      ],
      "stateMutability": "nonpayable",
      "type": "constructor"
    },
    {
      "inputs": [],
      "name": "AccessControlBadConfirmation",
      "type": "error"
    },
    {
      "inputs": [
        {
          "internalType": "address",
          "name": "account",
          "type": "address"
        },
        {
          "internalType": "bytes32",
          "name": "neededRole",
          "type": "bytes32"
        }
      ],
      "name": "AccessControlUnauthorizedAccount",
      "type": "error"
    },
    {
      "inputs": [
        {
          "internalType": "address",
          "name": "sender",
          "type": "address"
        },
        {
          "internalType": "uint256",
          "name": "tokenId",
          "type": "uint256"
        },
        {
          "internalType": "address",
          "name": "owner",
          "type": "address"
        }
      ],
      "name": "ERC721IncorrectOwner",
      "type": "error"
    },
    {
      "inputs": [
        {
          "internalType": "address",
          "name": "operator",
          "type": "address"
        },
        {
          "internalType": "uint256",
          "name": "tokenId",
          "type": "uint256"
        }
      ],
      "name": "ERC721InsufficientApproval",
      "type": "error"
    },
    {
      "inputs": [
        {
          "internalType": "address",
          "name": "approver",
          "type": "address"
        }
      ],
      "name": "ERC721InvalidApprover",
      "type": "error"
    },
    {
      "inputs": [
        {
          "internalType": "address",
          "name": "operator",
          "type": "address"
        }
      ],
      "name": "ERC721InvalidOperator",
      "type": "error"
    },
    {
      "inputs": [
        {
          "internalType": "address",
          "name": "owner",
          "type": "address"
        }
      ],
      "name": "ERC721InvalidOwner",
      "type": "error"
    },
    {
      "inputs": [
        {
          "internalType": "address",
          "name": "receiver",
          "type": "address"
        }
      ],
      "name": "ERC721InvalidReceiver",
      "type": "error"
    },
    {
      "inputs": [
        {
          "internalType": "address",
          "name": "sender",
          "type": "address"
        }
      ],
      "name": "ERC721InvalidSender",
      "type": "error"
    },
    {
      "inputs": [
        {
          "internalType": "uint256",
          "name": "tokenId",
          "type": "uint256"
        }
      ],
      "name": "ERC721NonexistentToken",
      "type": "error"
    },
    {
      "inputs": [],
      "name": "EnforcedPause",
      "type": "error"
    },
    {
      "inputs": [],
      "name": "ExpectedPause",
      "type": "error"
    },
    {
      "anonymous": false,
      "inputs": [
        {
          "indexed": true,
          "internalType": "address",
          "name": "owner",
          "type": "address"
        },
        {
          "indexed": true,
          "internalType": "address",
          "name": "approved",
          "type": "address"
        },
        {
          "indexed": true,
          "internalType": "uint256",
          "name": "tokenId",
          "type": "uint256"
        }
      ],
      "name": "Approval",
      "type": "event"
    },
    {
      "anonymous": false,
      "inputs": [
        {
          "indexed": true,
          "internalType": "address",
          "name": "owner",
          "type": "address"
        },
        {
          "indexed": true,
          "internalType": "address",
          "name": "operator",
          "type": "address"
        },
        {
          "indexed": false,
          "internalType": "bool",
          "name": "approved",
          "type": "bool"
        }
      ],
      "name": "ApprovalForAll",
      "type": "event"
    },
    {
      "anonymous": false,
      "inputs": [
        {
          "indexed": true,
          "internalType": "address",
          "name": "to",
          "type": "address"
        },
        {
          "indexed": true,
          "internalType": "uint256",
          "name": "tokenId",
          "type": "uint256"
        },
        {
          "indexed": true,
          "internalType": "address",
          "name": "brandWallet",
          "type": "address"
        }
      ],
      "name": "NFTMinted",
      "type": "event"
    },
    {
      "anonymous": false,
      "inputs": [
        {
          "indexed": false,
          "internalType": "address",
          "name": "account",
          "type": "address"
        }
      ],
      "name": "Paused",
      "type": "event"
    },
    {
      "anonymous": false,
      "inputs": [
        {
          "indexed": true,
          "internalType": "bytes32",
          "name": "role",
          "type": "bytes32"
        },
        {
          "indexed": true,
          "internalType": "bytes32",
          "name": "previousAdminRole",
          "type": "bytes32"
        },
        {
          "indexed": true,
          "internalType": "bytes32",
          "name": "newAdminRole",
          "type": "bytes32"
        }
      ],
      "name": "RoleAdminChanged",
      "type": "event"
    },
    {
      "anonymous": false,
      "inputs": [
        {
          "indexed": true,
          "internalType": "bytes32",
          "name": "role",
          "type": "bytes32"
        },
        {
          "indexed": true,
          "internalType": "address",
          "name": "account",
          "type": "address"
        },
        {
          "indexed": true,
          "internalType": "address",
          "name": "sender",
          "type": "address"
        }
      ],
      "name": "RoleGranted",
      "type": "event"
    },
    {
      "anonymous": false,
      "inputs": [
        {
          "indexed": true,
          "internalType": "bytes32",
          "name": "role",
          "type": "bytes32"
        },
        {
          "indexed": true,
          "internalType": "address",
          "name": "account",
          "type": "address"
        },
        {
          "indexed": true,
          "internalType": "address",
          "name": "sender",
          "type": "address"
        }
      ],
      "name": "RoleRevoked",
      "type": "event"
    },
    {
      "anonymous": false,
      "inputs": [
        {
          "indexed": true,
          "internalType": "address",
          "name": "from",
          "type": "address"
        },
        {
          "indexed": true,
          "internalType": "address",
          "name": "to",
          "type": "address"
        },
        {
          "indexed": true,
          "internalType": "uint256",
          "name": "tokenId",
          "type": "uint256"
        }
      ],
      "name": "Transfer",
      "type": "event"
    },
    {
      "anonymous": false,
      "inputs": [
        {
          "indexed": false,
          "internalType": "address",
          "name": "account",
          "type": "address"
        }
      ],
      "name": "Unpaused",
      "type": "event"
    },
    {
      "inputs": [],
      "name": "DEFAULT_ADMIN_ROLE",
      "outputs": [
        {
          "internalType": "bytes32",
          "name": "",
          "type": "bytes32"
        }
      ],
      "stateMutability": "view",
      "type": "function"
    },
    {
      "inputs": [],
      "name": "MINTER_ROLE",
      "outputs": [
        {
          "internalType": "bytes32",
          "name": "",
          "type": "bytes32"
        }
      ],
      "stateMutability": "view",
      "type": "function"
    },
    {
      "inputs": [],
      "name": "PAUSER_ROLE",
      "outputs": [
        {
          "internalType": "bytes32",
          "name": "",
          "type": "bytes32"
        }
      ],
      "stateMutability": "view",
      "type": "function"
    },
    {
      "inputs": [
        {
          "internalType": "address",
          "name": "to",
          "type": "address"
        },
        {
          "internalType": "uint256",
          "name": "tokenId",
          "type": "uint256"
        }
      ],
      "name": "approve",
      "outputs": [],
      "stateMutability": "nonpayable",
      "type": "function"
    },
    {
      "inputs": [
        {
          "internalType": "address",
          "name": "owner",
          "type": "address"
        }
      ],
      "name": "balanceOf",
      "outputs": [
        {
          "internalType": "uint256",
          "name": "",
          "type": "uint256"
        }
      ],
      "stateMutability": "view",
      "type": "function"
    },
    {
      "inputs": [
        {
          "internalType": "uint256",
          "name": "tokenId",
          "type": "uint256"
        }
      ],
      "name": "getApproved",
      "outputs": [
        {
          "internalType": "address",
          "name": "",
          "type": "address"
        }
      ],
      "stateMutability": "view",
      "type": "function"
    },
    {
      "inputs": [
        {
          "internalType": "address",
          "name": "brandWallet",
          "type": "address"
        }
      ],
      "name": "getBrandNFTs",
      "outputs": [
        {
          "internalType": "uint256[]",
          "name": "",
          "type": "uint256[]"
        }
      ],
      "stateMutability": "view",
      "type": "function"
    },
    {
      "inputs": [],
      "name": "getCurrentTokenId",
      "outputs": [
        {
          "internalType": "uint256",
          "name": "",
          "type": "uint256"
        }
      ],
      "stateMutability": "view",
      "type": "function"
    },
    {
      "inputs": [
        {
          "internalType": "bytes32",
          "name": "role",
          "type": "bytes32"
        }
      ],
      "name": "getRoleAdmin",
      "outputs": [
        {
          "internalType": "bytes32",
          "name": "",
          "type": "bytes32"
        }
      ],
      "stateMutability": "view",
      "type": "function"
    },
    {
      "inputs": [
        {
          "internalType": "uint256",
          "name": "tokenId",
          "type": "uint256"
        }
      ],
      "name": "getTokenBrand",
      "outputs": [
        {
          "internalType": "address",
          "name": "",
          "type": "address"
        }
      ],
      "stateMutability": "view",
      "type": "function"
    },
    {
      "inputs": [
        {
          "internalType": "bytes32",
          "name": "role",
          "type": "bytes32"
        },
        {
          "internalType": "address",
          "name": "account",
          "type": "address"
        }
      ],
      "name": "grantRole",
      "outputs": [],
      "stateMutability": "nonpayable",
      "type": "function"
    },
    {
      "inputs": [
        {
          "internalType": "bytes32",
          "name": "role",
          "type": "bytes32"
        },
        {
          "internalType": "address",
          "name": "account",
          "type": "address"
        }
      ],
      "name": "hasRole",
      "outputs": [
        {
          "internalType": "bool",
          "name": "",
          "type": "bool"
        }
      ],
      "stateMutability": "view",
      "type": "function"
    },
    {
      "inputs": [
        {
          "internalType": "address",
          "name": "owner",
          "type": "address"
        },
        {
          "internalType": "address",
          "name": "operator",
          "type": "address"
        }
      ],
      "name": "isApprovedForAll",
      "outputs": [
        {
          "internalType": "bool",
          "name": "",
          "type": "bool"
        }
      ],
      "stateMutability": "view",
      "type": "function"
    },
    {
      "inputs": [
        {
          "internalType": "address",
          "name": "to",
          "type": "address"
        },
        {
          "internalType": "string",
          "name": "uri",
          "type": "string"
        },
        {
          "internalType": "address",
          "name": "brandWallet",
          "type": "address"
        }
      ],
      "name": "mint",
      "outputs": [
        {
          "internalType": "uint256",
          "name": "tokenId",
          "type": "uint256"
        }
      ],
      "stateMutability": "nonpayable",
      "type": "function"
    },
    {
      "inputs": [],
      "name": "name",
      "outputs": [
        {
          "internalType": "string",
          "name": "",
          "type": "string"
        }
      ],
      "stateMutability": "view",
      "type": "function"
    },
    {
      "inputs": [
        {
          "internalType": "uint256",
          "name": "tokenId",
          "type": "uint256"
        }
      ],
      "name": "ownerOf",
      "outputs": [
        {
          "internalType": "address",
          "name": "",
          "type": "address"
        }
      ],
      "stateMutability": "view",
      "type": "function"
    },
    {
      "inputs": [],
      "name": "pause",
      "outputs": [],
      "stateMutability": "nonpayable",
      "type": "function"
    },
    {
      "inputs": [],
      "name": "paused",
      "outputs": [
        {
          "internalType": "bool",
          "name": "",
          "type": "bool"
        }
      ],
      "stateMutability": "view",
      "type": "function"
    },
    {
      "inputs": [
        {
          "internalType": "bytes32",
          "name": "role",
          "type": "bytes32"
        },
        {
          "internalType": "address",
          "name": "callerConfirmation",
          "type": "address"
        }
      ],
      "name": "renounceRole",
      "outputs": [],
      "stateMutability": "nonpayable",
      "type": "function"
    },
    {
      "inputs": [
        {
          "internalType": "bytes32",
          "name": "role",
          "type": "bytes32"
        },
        {
          "internalType": "address",
          "name": "account",
          "type": "address"
        }
      ],
      "name": "revokeRole",
      "outputs": [],
      "stateMutability": "nonpayable",
      "type": "function"
    },
    {
      "inputs": [
        {
          "internalType": "address",
          "name": "from",
          "type": "address"
        },
        {
          "internalType": "address",
          "name": "to",
          "type": "address"
        },
        {
          "internalType": "uint256",
          "name": "tokenId",
          "type": "uint256"
        }
      ],
      "name": "safeTransferFrom",
      "outputs": [],
      "stateMutability": "nonpayable",
      "type": "function"
    },
    {
      "inputs": [
        {
          "internalType": "address",
          "name": "from",
          "type": "address"
        },
        {
          "internalType": "address",
          "name": "to",
          "type": "address"
        },
        {
          "internalType": "uint256",
          "name": "tokenId",
          "type": "uint256"
        },
        {
          "internalType": "bytes",
          "name": "data",
          "type": "bytes"
        }
      ],
      "name": "safeTransferFrom",
      "outputs": [],
      "stateMutability": "nonpayable",
      "type": "function"
    },
    {
      "inputs": [
        {
          "internalType": "address",
          "name": "operator",
          "type": "address"
        },
        {
          "internalType": "bool",
          "name": "approved",
          "type": "bool"
        }
      ],
      "name": "setApprovalForAll",
      "outputs": [],
      "stateMutability": "nonpayable",
      "type": "function"
    },
    {
      "inputs": [
        {
          "internalType": "bytes4",
          "name": "interfaceId",
          "type": "bytes4"
        }
      ],
      "name": "supportsInterface",
      "outputs": [
        {
          "internalType": "bool",
          "name": "",
          "type": "bool"
        }
      ],
      "stateMutability": "view",
      "type": "function"
    },
    {
      "inputs": [],
      "name": "symbol",
      "outputs": [
        {
          "internalType": "string",
          "name": "",
          "type": "string"
        }
      ],
      "stateMutability": "view",
      "type": "function"
    },
    {
      "inputs": [
        {
          "internalType": "uint256",
          "name": "tokenId",
          "type": "uint256"
        }
      ],
      "name": "tokenURI",
      "outputs": [
        {
          "internalType": "string",
          "name": "",
          "type": "string"
        }
      ],
      "stateMutability": "view",
      "type": "function"
    },
    {
      "inputs": [
        {
          "internalType": "address",
          "name": "from",
          "type": "address"
        },
        {
          "internalType": "address",
          "name": "to",
          "type": "address"
        },
        {
          "internalType": "uint256",
          "name": "tokenId",
          "type": "uint256"
        }
      ],
      "name": "transferFrom",
      "outputs": [],
      "stateMutability": "nonpayable",
      "type": "function"
    },
    {
      "inputs": [],
      "name": "unpause",
      "outputs": [],
      "stateMutability": "nonpayable",
      "type": "function"
    }
  ],
  "bytecode": "0x6080604052346103b957611f286020813803918261001c816103be565b9384928339810103126103b957516001600160a01b0381168082036103b95761004560406103be565b91600b83526a11dbdb4811dbdb4813919560aa1b602084015261006860406103be565b600581526411d1d3919560da1b602082015283519092906001600160401b0381116102c457600054600181811c911680156103af575b60208210146102a457601f811161034b575b50602094601f82116001146102e5579481929394956000926102da575b50508160011b916000199060031b1c1916176000555b82516001600160401b0381116102c457600154600181811c911680156102ba575b60208210146102a457601f811161023f575b506020601f82116001146101d857819293946000926101cd575b50508160011b916000199060031b1c1916176001555b156101785780610158610168926103e3565b506101628161045f565b5061051b565b5060405161191490816105b48239f35b60405162461bcd60e51b815260206004820152602760248201527f476f6d476f6d4e46543a2061646d696e2063616e6e6f74206265207a65726f206044820152666164647265737360c81b6064820152608490fd5b015190503880610130565b601f198216906001600052806000209160005b8181106102275750958360019596971061020e575b505050811b01600155610146565b015160001960f88460031b161c19169055388080610200565b9192602060018192868b0151815501940192016101eb565b60016000527fb10e2d527612073b26eecdfd717e6a320cf44b4afac2b0732d9fcbe2b7fa0cf6601f830160051c8101916020841061029a575b601f0160051c01905b81811061028e5750610116565b60008155600101610281565b9091508190610278565b634e487b7160e01b600052602260045260246000fd5b90607f1690610104565b634e487b7160e01b600052604160045260246000fd5b0151905038806100cd565b601f1982169560008052806000209160005b8881106103335750836001959697981061031a575b505050811b016000556100e3565b015160001960f88460031b161c1916905538808061030c565b919260206001819286850151815501940192016102f7565b600080527f290decd9548b62a8d60345a988386fc84ba6bc95484008f6362f93160ef3e563601f830160051c810191602084106103a5575b601f0160051c01905b81811061039957506100b0565b6000815560010161038c565b9091508190610383565b90607f169061009e565b600080fd5b6040519190601f01601f191682016001600160401b038111838210176102c457604052565b6001600160a01b0381166000908152600080516020611f08833981519152602052604090205460ff16610459576001600160a01b03166000818152600080516020611f0883398151915260205260408120805460ff19166001179055339190600080516020611ec88339815191528180a4600190565b50600090565b6001600160a01b03811660009081527f3195c024b2ddd6d9b8f6c836aa52f67fe69376c8903d009b80229b3ce4425f51602052604090205460ff16610459576001600160a01b031660008181527f3195c024b2ddd6d9b8f6c836aa52f67fe69376c8903d009b80229b3ce4425f5160205260408120805460ff191660011790553391907f9f2df0fed2c77648de5860a4cc508cd0818c85b8b8a1ab4ceeef8d981c8956a690600080516020611ec88339815191529080a4600190565b6001600160a01b0381166000908152600080516020611ee8833981519152602052604090205460ff16610459576001600160a01b03166000818152600080516020611ee883398151915260205260408120805460ff191660011790553391907f65d7a28e3265b37a6474929f336521b332c1681b933f6cb9f3376673440d862a90600080516020611ec88339815191529080a460019056fe608080604052600436101561001357600080fd5b60003560e01c90816301ffc9a7146111d25750806306fdde031461112d578063081812fc146110ef578063095ea7b314611000578063138562bd14610f4657806323b872dd14610ee4578063248a9ca314610eaf5780632f2ff15d14610e6f57806336568abe14610e295780633f4ba83a14610dc057806342842e0e14610d975780635618923614610d795780635c975abb14610d565780636352211e14610d2657806370a0823114610cd057806379a7304c14610c795780638456cb5914610c1f57806391d1485414610bd257806395d89b4114610b04578063a217fddf14610ae8578063a22cb46514610a47578063b88d4fde14610972578063c87b56dd14610873578063d539139314610838578063d547741f146107f1578063e63ab1e9146107b6578063e985e9c51461075b5763fa8509c81461015357600080fd5b346107565760603660031901126107565761016c611298565b60243567ffffffffffffffff811161075657366023820112156107565761019d903690602481600401359101611352565b906044356001600160a01b03811690819003610756573360009081527f3195c024b2ddd6d9b8f6c836aa52f67fe69376c8903d009b80229b3ce4425f51602052604090205460ff161561071d576101f2611446565b6001600160a01b0382169081156106c957801561066d5783511561061c57600854600019811461060657600101918260085560209460405161023487826112fe565b60008082528581526002885260408120549096906001600160a01b031680151590816105d2575b856105bb575b87895260028a526040892080546001600160a01b031916871790558786827fddf252ad1be2c89b69c2b068fc378daa952ba7f163c4a11628f55a4df523b3ef8c80a4506105a7579087913b610487575b505083855260098652604085209080519067ffffffffffffffff82116104735781906102dd8454611389565b601f8111610425575b508890601f83116001146103c25788926103b7575b50508160011b916000199060031b1c19161790555b818452600a855260408420805490680100000000000000008210156103a3576001820180825582101561038f57855285852001839055828452600b8552604080852080546001600160a01b0319168417905551938391907f89a2c92e65780856b461f06435fffd0fb445240ba3cfee7e8f18e01dca40c0739080a48152f35b634e487b7160e01b86526032600452602486fd5b634e487b7160e01b86526041600452602486fd5b0151905038806102fb565b8489528989209250601f198416895b8b82821061040f5750509084600195949392106103f6575b505050811b019055610310565b015160001960f88460031b161c191690553880806103e9565b60018596829396860151815501950193016103d1565b909150838852888820601f840160051c8101918a8510610469575b90601f859493920160051c01905b81811061045b57506102e6565b89815584935060010161044e565b9091508190610440565b634e487b7160e01b87526041600452602487fd5b906104c4916040969594965180938192630a85bd0160e11b83523360048401528a6024840152886044840152608060648401526084830190611257565b038189895af1869181610563575b5061052d57505050503d600014610526573d6104ed81611336565b906104fb60405192836112fe565b81523d838583013e5b8051938461052057633250574960e11b84526004839052602484fd5b84925001fd5b6060610504565b929391926001600160e01b03191663757a42ff60e11b0161054f5785386102b1565b633250574960e11b85526004829052602485fd5b9091508781813d83116105a0575b61057b81836112fe565b8101031261059c57516001600160e01b03198116810361059c5790386104d2565b8680fd5b503d610571565b6339e3563760e11b87526004879052602487fd5b85895260038a526040892060018154019055610261565b600088815260046020526040902080546001600160a01b031916905580895260038a5260408920805460001901905561025b565b634e487b7160e01b600052601160045260246000fd5b60405162461bcd60e51b8152602060048201526024808201527f476f6d476f6d4e46543a20746f6b656e205552492063616e6e6f7420626520656044820152636d70747960e01b6064820152608490fd5b60405162461bcd60e51b815260206004820152602e60248201527f476f6d476f6d4e46543a206272616e642077616c6c65742063616e6e6f74206260448201526d65207a65726f206164647265737360901b6064820152608490fd5b60405162461bcd60e51b815260206004820152602660248201527f476f6d476f6d4e46543a2063616e6e6f74206d696e7420746f207a65726f206160448201526564647265737360d01b6064820152608490fd5b63e2517d3f60e01b600052336004527f9f2df0fed2c77648de5860a4cc508cd0818c85b8b8a1ab4ceeef8d981c8956a660245260446000fd5b600080fd5b3461075657604036600319011261075657610774611298565b61077c6112ae565b9060018060a01b0316600052600560205260406000209060018060a01b0316600052602052602060ff604060002054166040519015158152f35b346107565760003660031901126107565760206040517f65d7a28e3265b37a6474929f336521b332c1681b933f6cb9f3376673440d862a8152f35b34610756576040366003190112610756576108366004356108106112ae565b9061083161082c82600052600660205260016040600020015490565b6114d5565b6115a1565b005b346107565760003660031901126107565760206040517f9f2df0fed2c77648de5860a4cc508cd0818c85b8b8a1ab4ceeef8d981c8956a68152f35b34610756576020366003190112610756576004356000818152600260205260409020546108aa906001600160a01b031615156113c3565b60005260096020526040600020604051906000908054906108ca82611389565b808552916001811690811561094b575060011461090a575b610906846108f2818603826112fe565b604051918291602083526020830190611257565b0390f35b600090815260208120939250905b808210610931575090915081016020016108f2826108e2565b919260018160209254838588010152019101909291610918565b60ff191660208087019190915292151560051b850190920192506108f291508390506108e2565b346107565760803660031901126107565761098b611298565b6109936112ae565b60443560643567ffffffffffffffff81116107565736602382011215610756576109c7903690602481600401359101611352565b916109d0611446565b6109d8611446565b6001600160a01b03811615610a31576109f2338383611627565b6001600160a01b0390811694908116808603610a14575061083694503361179a565b8386916364283d7b60e01b60005260045260245260445260646000fd5b633250574960e11b600052600060045260246000fd5b3461075657604036600319011261075657610a60611298565b60243590811515809203610756576001600160a01b0316908115610ad357336000526005602052604060002082600052602052604060002060ff1981541660ff83161790556040519081527f17307eab39ab6107e8899845ad3d59bd9653f200f220920489ca2b5937696c3160203392a3005b50630b61174360e31b60005260045260246000fd5b3461075657600036600319011261075657602060405160008152f35b34610756576000366003190112610756576040516000600154610b2681611389565b8084529060018116908115610bae5750600114610b4e575b610906836108f2818503826112fe565b91905060016000527fb10e2d527612073b26eecdfd717e6a320cf44b4afac2b0732d9fcbe2b7fa0cf6916000905b808210610b94575090915081016020016108f2610b3e565b919260018160209254838588010152019101909291610b7c565b60ff191660208086019190915291151560051b840190910191506108f29050610b3e565b3461075657604036600319011261075657610beb6112ae565b600435600052600660205260406000209060018060a01b0316600052602052602060ff604060002054166040519015158152f35b3461075657600036600319011261075657610c38611463565b610c40611446565b600160ff1960075416176007557f62e78cea01bee320cd4e420270b5ea74000d11b0c9f74754ebdbfc544b05a2586020604051338152a1005b3461075657602036600319011261075657600435600081815260026020526040902054610cb0906001600160a01b031615156113c3565b600052600b602052602060018060a01b0360406000205416604051908152f35b34610756576020366003190112610756576001600160a01b03610cf1611298565b168015610d105760005260036020526020604060002054604051908152f35b6322718ad960e21b600052600060045260246000fd5b34610756576020366003190112610756576020610d4460043561140f565b6040516001600160a01b039091168152f35b3461075657600036600319011261075657602060ff600754166040519015158152f35b34610756576000366003190112610756576020600854604051908152f35b3461075657610da5366112c4565b60405191610db46020846112fe565b600083526109d0611446565b3461075657600036600319011261075657610dd9611463565b60075460ff811615610e185760ff19166007557f5db9ee0a495bf2e6ff9c91a7834c1ba4fdd244a5e8aa4e537bd38aeae4b073aa6020604051338152a1005b638dfc202b60e01b60005260046000fd5b3461075657604036600319011261075657610e426112ae565b336001600160a01b03821603610e5e57610836906004356115a1565b63334bd91960e11b60005260046000fd5b3461075657604036600319011261075657610836600435610e8e6112ae565b90610eaa61082c82600052600660205260016040600020015490565b611512565b34610756576020366003190112610756576020610edc600435600052600660205260016040600020015490565b604051908152f35b3461075657610ef2366112c4565b90610efb611446565b6001600160a01b03811615610a3157610f1690823391611627565b6001600160a01b039081169216808303610f2c57005b6364283d7b60e01b60005260045260245260445260646000fd5b34610756576020366003190112610756576001600160a01b03610f67611298565b16600052600a60205260406000206040518060208354918281520190819360005260206000209060005b818110610fea5750505081610fa79103826112fe565b6040519182916020830190602084525180915260408301919060005b818110610fd1575050500390f35b8251845285945060209384019390920191600101610fc3565b8254845260209093019260019283019201610f91565b3461075657604036600319011261075657611019611298565b6024356110258161140f565b331515806110dc575b806110ae575b6110995781906001600160a01b0384811691167f8c5be1e5ebec7d5bd14f71427d1e84f3dd0314c0f7b2291e5b200ac8c7c3b925600080a4600090815260046020526040902080546001600160a01b0319166001600160a01b03909216919091179055005b63a9fbf51f60e01b6000523360045260246000fd5b506001600160a01b038116600090815260056020908152604080832033845290915290205460ff1615611034565b506001600160a01b03811633141561102e565b346107565760203660031901126107565760043561110c8161140f565b506000526004602052602060018060a01b0360406000205416604051908152f35b34610756576000366003190112610756576040516000805461114e81611389565b8084529060018116908115610bae575060011461117557610906836108f2818503826112fe565b60008080527f290decd9548b62a8d60345a988386fc84ba6bc95484008f6362f93160ef3e563939250905b8082106111b8575090915081016020016108f2610b3e565b9192600181602092548385880101520191019092916111a0565b34610756576020366003190112610756576004359063ffffffff60e01b821680920361075657602091637965db0b60e01b8114908115611214575b5015158152f35b6380ac58cd60e01b811491508115611246575b8115611235575b508361120d565b6301ffc9a760e01b1490508361122e565b635b5e139f60e01b81149150611227565b919082519283825260005b848110611283575050826000602080949584010152601f8019910116010190565b80602080928401015182828601015201611262565b600435906001600160a01b038216820361075657565b602435906001600160a01b038216820361075657565b6060906003190112610756576004356001600160a01b038116810361075657906024356001600160a01b0381168103610756579060443590565b90601f8019910116810190811067ffffffffffffffff82111761132057604052565b634e487b7160e01b600052604160045260246000fd5b67ffffffffffffffff811161132057601f01601f191660200190565b92919261135e82611336565b9161136c60405193846112fe565b829481845281830111610756578281602093846000960137010152565b90600182811c921680156113b9575b60208310146113a357565b634e487b7160e01b600052602260045260246000fd5b91607f1691611398565b156113ca57565b60405162461bcd60e51b815260206004820152601f60248201527f476f6d476f6d4e46543a20746f6b656e20646f6573206e6f74206578697374006044820152606490fd5b6000818152600260205260409020546001600160a01b0316908115611432575090565b637e27328960e01b60005260045260246000fd5b60ff6007541661145257565b63d93c066560e01b60005260046000fd5b3360009081527fe09f975e15f8f53f24cbbc282b13c40b84df485fcdb8d3997fa103dc5a4ef841602052604090205460ff161561149c57565b63e2517d3f60e01b600052336004527f65d7a28e3265b37a6474929f336521b332c1681b933f6cb9f3376673440d862a60245260446000fd5b600081815260066020908152604080832033845290915290205460ff16156114fa5750565b63e2517d3f60e01b6000523360045260245260446000fd5b60008181526006602090815260408083206001600160a01b038616845290915290205460ff1661159a5760008181526006602090815260408083206001600160a01b0395909516808452949091528120805460ff19166001179055339291907f2f8788117e7eff1d82e926ec794901d17c78024a50270940304540a733656f0d9080a4600190565b5050600090565b60008181526006602090815260408083206001600160a01b038616845290915290205460ff161561159a5760008181526006602090815260408083206001600160a01b0395909516808452949091528120805460ff19169055339291907ff6391f5c32d9c69d2a47ea670b442974b53935d1edc7fd64eb21e047a839171b9080a4600190565b6000828152600260205260409020546001600160a01b03908116931680151580611702575b5050826116cb575b6001600160a01b0316806116b1575b8160005260026020526040600020816bffffffffffffffffffffffff60a01b825416179055827fddf252ad1be2c89b69c2b068fc378daa952ba7f163c4a11628f55a4df523b3ef600080a490565b806000526003602052604060002060018154019055611663565b600082815260046020526040902080546001600160a01b031916905582600052600360205260406000206000198154019055611654565b80611746575b15611713578061164c565b90508261172f5750637e27328960e01b60005260045260246000fd5b63177e802f60e01b60005260045260245260446000fd5b508084148015611776575b8061170857506000838152600460205260409020546001600160a01b03168114611708565b5083600052600560205260406000208160005260205260ff60406000205416611751565b823b6117a8575b5050505050565b604051630a85bd0160e11b81526001600160a01b0391821660048201529181166024830152604482019390935260806064820152911691602090829081906117f4906084830190611257565b03816000865af18091600091611894575b509061185e57503d15611857573d61181c81611336565b9061182a60405192836112fe565b81523d6000602083013e5b805190816118525782633250574960e11b60005260045260246000fd5b602001fd5b6060611835565b6001600160e01b03191663757a42ff60e11b01611880575038808080806117a1565b633250574960e11b60005260045260246000fd5b6020813d6020116118d6575b816118ad602093836112fe565b810103126118d25751906001600160e01b0319821682036118cf575038611805565b80fd5b5080fd5b3d91506118a056fea26469706673582212209327528e3cb178c4be72902152b64e8cf81a58ac2d86b6bd3f943bca149cb0fd64736f6c634300081c00332f8788117e7eff1d82e926ec794901d17c78024a50270940304540a733656f0de09f975e15f8f53f24cbbc282b13c40b84df485fcdb8d3997fa103dc5a4ef84154cdd369e4e8a8515e52ca72ec816c2101831ad1f18bf44102ed171459c9b4f8",
  "linkReferences": {},
  "deployedLinkReferences": {}
}